:060000000A128A1110280B
:10000800FE00030E83160313AD000A08AE007F0836
:10001800AF000A128A15F02E0A128A1113288316C5
:100028000313B101B201B301B401B501B601B701BF
:10003800B80183010A128A15302C831203133D0874
:100048008039C2004208C7003D08C2004207C30009
:100058004308CD00BC1F3128322833284D144D08E1
:1000680003193728382847284D0A031D3C283D28FE
:1000780045280030BD000030BC000030BB00003017
:10008800BA00BC174F280030BD000030BC0000305B
:10009800BB000030BA0041088039C2004208C706D8
:1000A8004108C2004207C3004308CC00C01F5D28B6
:1000B8005E285F284C144C080319632864287328A9
:1000C8004C0A031D6828692871280030C1000030D7
:1000D800C0000030BF000030BE00C0177B280030D1
:1000E800C1000030C0000030BF000030BE004C0826
:1000F80003197F28802885284D08031D8428852812
:100108008E280030BD000030BC000030BB0000303D
:10011800BA00812B3A08C2004208F00040080A12CF
:100128008A1509240A128A11710883120313D3004D
:100138007008D2005208C200C301C401C5014508B5
:10014800CB004408CA004308C9004208C800530845
:10015800C200C301C401C5014508D1004408D0004C
:100168004308CF004208CE003B08C2004208F00016
:100178003F080A128A1509240A128A117108831283
:100188000313D3007008D2005208C200C301C4018F
:10019800C5014208C807430803110318013E0319A3
:1001A800D628C907440803110318013E0319DD289E
:1001B800CA07450803110318013E0319E428CB07B1
:1001C8005308C200C301C401C5014208CE07430851
:1001D80003110318013E0319F228CF07440803113D
:1001E8000318013E0319F928D0074508031103181D
:1001F800013E03190029D1073C08C2004208F0005B
:100208003E080A128A1509240A128A1171088312F3
:100218000313D3007008D2005208C200C301C401FE
:10022800C5014208C807430803110318013E031912
:100238001E29C907440803110318013E031925297B
:10024800CA07450803110318013E03192C29CB07D7
:100258005308C200C301C401C5014208CE074308C0
:1002680003110318013E03193A29CF074408031163
:100278000318013E03194129D00745080311031843
:10028800013E03194829D1070830C2000310C80DE0
:10029800C90DCA0DCB0DC20B4A293B08C200420842
:1002A800F0003E080A128A1509240A128A117108F8
:1002B80083120313D3007008D2005208C2005308F7
:1002C800C300C401C5014208C80743080311031845
:1002D800013E03197029C907440803110318013E98
:1002E80003197729CA07450803110318013E0319A2
:1002F8007E29CB073A08C2004208F0003F080A12DC
:100308008A1509240A128A11710883120313D3006B
:100318007008D2005208C2005308C300C401C501C6
:100328004208C807430803110318013E03199D2911
:10033800C907440803110318013E0319A429CA0771
:10034800450803110318013E0319AB29CB070830F0
:10035800C2000310C80DC90DCA0DCB0DC20BAD29C3
:100368003A08C2004208F0003E080A128A15092419
:100378000A128A11710883120313D3007008D2007D
:100388005208C2005308C300C401C5014208C80787
:10039800430803110318013E0319D329C907440868
:1003A80003110318013E0319DA29CA074508031186
:1003B8000318013E0319E129CB073B08C200420894
:1003C800F00040080A128A1509240A128A117108D5
:1003D80083120313D3007008D2005208C2005308D6
:1003E800C300C401C5014208CE074308031103181E
:1003F800013E0319002ACF07440803110318013EE0
:100408000319072AD007450803110318013E0319E9
:100418000E2AD1073C08C2004208F0003F080A1221
:100428008A1509240A128A11710883120313D3004A
:100438007008D2005208C2005308C300C401C501A5
:100448004208CE07430803110318013E03192D2A59
:10045800CF07440803110318013E0319342AD007B3
:10046800450803110318013E03193B2AD1073C082C
:10047800C2004208F00040080A128A1509240A122C
:100488008A11710883120313D3007008D20052082E
:10049800C2005308C300C401C50108300310C20DCF
:1004A800C30DC40DC50DFF3E031D522A4208CE07D9
:1004B800430803110318013E0319632ACF074408B0
:1004C80003110318013E03196A2AD00745080311CE
:1004D8000318013E0319712AD1074808C2004908C8
:1004E800C3004A08C4004B08C50018300310C50CE7
:1004F800C40CC30CC20CFF3E031D7A2A4208CE0767
:10050800430803110318013E03198B2ACF07440837
:1005180003110318013E0319922AD0074508031155
:100528000318013E0319992AD1070830C2000310A5
:10053800C80DC90DCA0DCB0DC20B9B2A4D084C071F
:10054800C200C301C30D4208823ED200430803180B
:10055800013EFF3ED300CD2A0130C2000310CE0D6C
:10056800CF0DD00DD10DC20BB22ACB1FBC2ABD2A8C
:10057800BE2A4E140130C2000310C80DC90DCA0DA1
:10058800CB0DC20BC02AFF30D2070318D30AFF30A5
:10059800D307D01FD02AD12AB02ACC01CB1FD52A05
:1005A800D62AF22AFF304805C200FF304905C300A9
:1005B800FF304A05C4007F304B05C5004508440498
:1005C800430442040319E92AEA2AED2ACC01CC0A99
:1005D800F22A4E1CF02AF12AF22AEA2A4C080319B8
:1005E800F62AF72A282B0130CE07003003180130ED
:1005F800CF07003003180130D0070030031801304E
:10060800D107511C082B092B282B4E08C2004F0874
:10061800C3005008C4005108C5000130C600450D8C
:10062800C50CC40CC30CC20CC60B132B4508D10057
:100638004408D0004308CF004208CE000130D2075A
:100648000318D30A0030D3075308803AFF008030DC
:100658007F02031D312BFF305202031C342B352B34
:10066800402B7F3083120313D1008030D00000303C
:10067800CF000030CE00752B831203135308803A45
:10068800FF0080307F02031D4B2B013052020318FC
:100698004E2B4F2B5B2B003083120313D1000030FD
:1006A800D0000030CF000030CE00C701752B831278
:1006B80003135208C2004208CD00FF30CE05FF30B8
:1006C800CF057F30D0050030D1054D1C6C2B6D2B2C
:1006D8006E2BD0174D08C2000310420CC30043080C
:1006E800D1004708C2004208D1045108BD00500893
:1006F800BC004F08BB004E08BA0008008312031361
:1007080057088039DC005C08E4005708DC005C0707
:10071800DD005D08E600D61F922B932B942B661400
:1007280066080319982B992BA92B660A031D9D2B84
:100738009E2BA62B0030D7000030D6000030D50005
:100748000030D400D617D701B12B0030D7000030C5
:10075800D6000030D5000030D4005B088039DC00BA
:100768005C08E500650864060319BB2BBC2BBD2B90
:1007780064175B08DC005C07DD005D08E500DA1F34
:10078800C62BC72BC82B651465080319CC2BCD2B9A
:10079800DD2B650A031DD12BD22BDA2B0030DB00B1
:1007A8000030DA000030D9000030D800DA17DB0159
:1007B800E52B0030DB000030DA000030D9000030D3
:1007C800D800660865020318EA2BEB2B2F2C641F50
:1007D800EE2BEF2BF32B8030DC005C08E406660878
:1007E800DC005C08E7006508DC005C08E6006708D8
:1007F800DC005C08E5005408DC005C08E7005808E9
:10080800DC005C08D4006708DC005C08D8005508E8
:10081800DC005C08E7005908DC005C08D5006708C4
:10082800DC005C08D9005608DC005C08E7005A08C0
:10083800DC005C08D6006708DC005C08DA005708B2
:10084800DC005C08E7005B08DC005C08D700670890
:10085800DC005C08DB00E7016508DC00DD015D0801
:10086800DF0066085C02DE00031CDF035F08803AD5
:10087800FF0080307F02031D432C1A305E02031CE8
:10088800462C472C842C831203135708560455040E
:100898005404031D502C522C0130532C0030DC0022
:1008A8005C08E7000030D7000030D6000030D500E3
:1008B8000030D4006508DC005C08E6008C2C671C5E
:1008C800662C672C702C6708DC0003105C0C013860
:1008D800DD005D08E700722C0310E70C541C752C32
:1008E800762C772CE7170130DC00570DD70CD60C87
:1008F800D50CD40CDC0B792C0130DC005C08E60745
:100908008312031365086602031C8B2C8C2C632C42
:10091800641B8F2C902CDB2C6608031D942C952CC3
:100928009E2C0030D7000030D6000030D5000030B3
:10093800D400092E5808D407590803110318013E9A
:100948000319A72CD5075A0803110318013E0319E8
:10095800AE2CD6075B0803110318013E0319B52C0A
:10096800D707571CB82CB92C8F2D671CBC2CBD2C55
:10097800C62C6708DC0003105C0C0138DD005D083C
:10098800E700C82C0310E70C541CCB2CCC2CCD2C26
:10099800E7170130DC00570DD70CD60CD50CD40C5A
:1009A800DC0BCF2C0130DC005C08E6078F2D5708E4
:1009B800803AFF005B08803A7F02031DED2C5A083D
:1009C8005602031DED2C59085502031DED2C58083D
:1009D80054020318F02CF12C492DFF30DC00FF30B5
:1009E800DD00FF30DE00FF30DF005808E000590866
:1009F800E1005A08E2005B08E3005408E0025508E9
:100A0800031C550F082D092DE1025608031C560F2B
:100A18000E2D0F2DE2025708031C570F142D152D0C
:100A2800E3026008DC0761080318610F1C2D1D2D07
:100A3800DD0762080318620F222D232DDE076308E5
:100A48000318630ADF075F08D7005E08D6005D0851
:100A5800D5005C08D4008030DC005C08E406E709B7
:100A6800E70A6708031D392D3A2D572D0130D407A1
:100A7800003003180130D507003003180130D607BD
:100A8800003003180130D707572D5808D4025908E9
:100A9800031C590FD5025A08031C5A0FD6025B08CB
:100AA800031C5B0FD7025708560455045404031D52
:100AB8005E2D5F2D8B2D6708031D632D642D8B2DF7
:100AC8000030D7000030D6000030D5000030D40008
:100AD800092E0130DC000310D40DD50DD60DD70D2D
:100AE800DC0B6F2DE71F792D7A2D7B2D5414671C95
:100AF8007E2D7F2D822D0314E70D842D0310E70D25
:100B080066080319882D892D8B2D0130E602D61F22
:100B18008E2D8F2D6D2DE501E71F932D942DA22D80
:100B280067087F390319992D9A2D9D2DE501E50A4E
:100B3800A22D541CA02DA12DA22D9A2D65080319B4
:100B4800A62DA72DDB2D0130D40700300318013066
:100B5800D507003003180130D607003003180130DC
:100B6800D707571CB82DB92DDB2D5408DC005508C4
:100B7800DD005608DE005708DF000130E0005F0D99
:100B8800DF0CDE0CDD0CDC0CE00BC32D5F08D7009E
:100B98005E08D6005D08D5005C08D400660A031913
:100BA800D62DD72DDB2D0130DC005C08E607660A60
:100BB8000319DF2DE02DE52D6608031DE42DE52D35
:100BC800F32D0030D7000030D6000030D5000030BB
:100BD800D4006608031DF12DF22DF32DE401661CE7
:100BE800F62DF72DF92DD617FD2D7F30DC005C088A
:100BF800D6056608DC0003105C0CDD005D08D70034
:100C0800E41F072E082E092ED71708008312031396
:100C180027088039A8002808B1002708A800280755
:100C2800A9002908B800A61F1A2E1B2E1C2E38143E
:100C380038080319202E212E312E380A031D252E9F
:100C4800262E2E2E0030A7000030A6000030A5006A
:100C58000030A400A617A701392E0030A7000030E5
:100C6800A6000030A5000030A40023088039A800A1
:100C78002808B1062308A8002807A9002908B900F0
:100C8800A21F472E482E492E3914390803194D2E14
:100C98004E2E5E2E390A031D522E532E5B2E003027
:100CA800A3000030A2000030A1000030A000A2176D
:100CB800A301662E0030A3000030A2000030A1007E
:100CC8000030A0002308220421042004031D6D2EF7
:100CD8006E2E872E0030A7000030A6000030A50039
:100CE8000030A4008030A6047F30A7043108A80093
:100CF8002808A7042708A3002608A2002508A100A1
:100D08002408A000E62F3808031D8B2E8C2E952E64
:100D18000030A3000030A2000030A1000030A00085
:100D2800E62F3808A800A9012908AB0039082802CD
:100D3800AA00031CAB032A087F3EB2002B08031845
:100D4800013E003EB3002708B0002608AF00250882
:100D5800AE002408AD000030A7000030A600003027
:100D6800A5000030A4000030B7000030B600003005
:100D7800B5000030B400B9010B2F39080319C52E8E
:100D8800C62EE62E0130A8000310AD0DAE0DAF0D36
:100D9800B00DA80BC82E0130A8000310A40DA50D96
:100DA800A60DA70DA80BD12EB71FDB2EDC2EDD2E2E
:100DB80024140130A8000310B40DB50DB60DB70DFD
:100DC800A80BDF2E23083002031DF42E22082F0261
:100DD800031DF42E21082E02031DF42E20082D02D7
:100DE800031CF72EF82E072F37172008AD0221080D
:100DF800031C210FAE022208031C220FAF02230896
:100E0800031C230FB0020130A8002808B9071A30C4
:100E18003902031C102F112FC12E30082F042E0465
:100E28002D040319182F192F382F3414382F013097
:100E3800A8000310A40DA50DA60DA70DA80B1D2F26
:100E4800B71F272F282F292F24140130A80003109B
:100E5800B40DB50DB60DB70DA80B2B2FFF30B2078B
:100E68000318B30AFF30B307A61F3B2F3C2F1B2FD5
:100E7800B901B71F402F412F5D2FFF303405A8005F
:100E8800FF303505A900FF303605AA007F30370549
:100E9800AB002B082A04290428040319542F552FC2
:100EA800582FB901B90A5D2F241C5B2F5C2F5D2FC9
:100EB800552F39080319612F622F932F0130A4078A
:100EC800003003180130A507003003180130A607C9
:100ED800003003180130A707271C732F742F932F96
:100EE8002408A8002508A9002608AA002708AB009E
:100EF8000130AC002B0DAB0CAA0CA90CA80CAC0B48
:100F08007E2F2B08A7002A08A6002908A500280874
:100F1800A4000130B2070318B30A0030B30733083E
:100F2800803AFF0080307F02031D9C2FFF30320281
:100F3800031C9F2FA02FAE2FFF3083120313B20084
:100F48000030B3000030A7000030A6000030A50034
:100F58000030A400831203133308803AFF00803066
:100F68007F02031DB92F013032020318BC2FBD2F99
:100F7800CA2F83120313B201B3010030A700003057
:100F8800A6000030A5000030A400B10183120313AD
:100F98003208A8002808B800381CD32FD42FD62F21
:100FA800A617DA2F7F30A8002808A6053808A80059
:100FB8000310280CA9002908A7003108A800280850
:060FC800A7047E2E0800C4
:10181200F800F401F5017008F200F3017208F60015
:101822007308F700781C162C172C1D2C7608F40769
:101832000318F50A7708F50701300310F60DF70DC6
:10184200FF3E031D1E2C0310F80C7808031D2A2CE2
:101852002B2C132C7508F1007408F00008000A12F2
:101862008A157C240A128A15831203139F183A2CB4
:101872003B2C352C1F0C83160313B000300C0F3990
:10188200003A031D452C462C4D2C831203131F08CE
:10189200C33904389F00722C831203131F0C831662
:1018A2000313B000300C0F39013A031D592C5A2C86
:1018B200612C831203131F08C33908389F00722C4E
:1018C200831203131F0C83160313B000300C0F395D
:1018D200023A031D6D2C6E2C722CC330831203133B
:1018E2009F05732C742C0000831203139F14352C54
:1018F2000A128A11102807308316031788008901FB
:10190200831603130F088F3930388F000F140730F6
:101912008500831203138501831603138801831242
:1019220003138801C0309F04831603131F129F12F2
:10193200C330831203139F05831603139F1383126D
:1019420003131F14A42CA52C0000831603130715E0
:1019520087148312031397019D019B30831603138F
:1019620092003F308312031397051708F0390C38A1
:1019720097001D08F0390C389D00073095001708B4
:10198200CF392038970007309B001D129D168C100E
:101992000330920412158C1CCF2CD02CCC2C8C1022
:1019A2008316031387110711871081128111011504
:1019B20081140114FF308312031381008B178316E5
:1019C20003130C17831203130C130B1708000310D5
:1019D200831203136A0D6B0D83160313A0002008F4
:1019E20083120313ED006D08031DF82CF92C022D50
:1019F2000030EB000030EA000030E9000030E8007F
:101A0200832D680883160313A00083120313690849
:101A120083160313A100831203136A0883160313A8
:101A2200A200831203136B0883160313A3001F3053
:101A32000310A30CA20CA10CA00CFF3E031D192D38
:101A42002008A400240883120313EC00EA17FF30D5
:101A5200E805FF30E905FF30EA050030EB05963076
:101A6200ED02ED1F352D362D542D6D08803A973E2F
:101A720003183C2D3D2D3E2DF92C01300310EB0CAB
:101A8200EA0CE90CE80CFF3E031D3F2D01308316E2
:101A92000313A000200883120313ED07031D522D28
:101AA200532D3E2D732D20306D02031C592D5A2DBE
:101AB2006E2DF92C013083160313A000031083123C
:101AC2000313E80DE90DEA0DEB0D83160313A00BCA
:101AD2005F2D013083120313ED026D08031D722D79
:101AE200732D5B2D6C080319772D782D832DE80952
:101AF200E909EA09EB09E80A0319E90A0319EA0AFA
:101B02000319EB0A080083120313EE008316031372
:101B12002708F0002808F100F201F30100300A1250
:101B22008A1536260A128A15730883120313DB00FC
:101B32007208DA007108D9007008D80083160313FE
:101B420027082902F0002808031C280A2A02F100AB
:101B5200F201F30100300A128A1536260A128A159A
:101B6200730883120313A7007208A6007108A50068
:101B72007008A4008316031325082602F000F10161
:101B8200031CF103F201F11BF2037208F3000130AE
:101B92000A128A1536260A128A157308831203134B
:101BA200A3007208A2007108A1007008A0000A1226
:101BB2008A110A260A128A15831203132308C10006
:101BC2002208C0002108BF002008BE0083160313AC
:101BD2002508831203136E02F000F101031CF103C6
:101BE200F201F11BF2037208F30001300A128A15A6
:101BF20036260A128A15730883120313BD0072086F
:101C0200BC007108BB007008BA000A128A112120B8
:101C12000A128A15831203133D08D7003C08D60026
:101C22003B08D5003A08D4000A128A1182230A120C
:101C32008A15831203135708EB005608EA00550869
:101C4200E9005408E8000A128A15E8240A128A15E3
:101C520083120313690883160313A6008312031366
:101C6200680883160313A5000800F8007808031912
:101C72003B2E3C2E502EF31F3F2E402E502E70092D
:101C8200FA007109FB007209FC007309FD00FA0AEF
:101C92000319FB0A0319FC0A0319FD0A582E7308DB
:101CA200FD007208FC007108FB007008FA0073085E
:101CB200720471047004031D5F2E602E692E0030C1
:101CC200F3000030F2000030F1000030F000EF2E9F
:101CD2009630F4007408F9007B2E0130F400740889
:101CE200F90701300310FD0CFC0CFB0CFA0CFF3E53
:101CF200031D732EFE307D05031D802E812E6E2E58
:101D02009D2E0130F4007408F9070130FA07003003
:101D120003180130FB07003003180130FC070030C4
:101D220003180130FD0701300310FD0CFC0CFB0C05
:101D3200FA0CFF3E031D952EFF307D05031DA22EDA
:101D4200A32E822EAF2E0130F9020130F4000310CF
:101D5200FA0DFB0DFC0DFD0DF40BA82EFC1BB22E93
:101D6200B32EB92E023079020318B82EB92EA42E42
:101D72007918BC2EBD2EC52EFF30FA05FF30FB05AB
:101D82007F30FC05FF30FD050310F90C7908F400E3
:101D9200F501F601F70118300310F40DF50DF60DFB
:101DA200F70DFF3E031DCD2E7408FA047508FB04DF
:101DB2007608FC047708FD0478080319E12EE22E68
:101DC200E72EF31FE52EE62EE72EFD177D08F30022
:101DD2007C08F2007B08F1007A08F0000800831208
:101DE20003130C1FF52EF62EC62F1F0C831603139A
:101DF200AB002B0C0F39003A031D002F012F3C2F93
:101E0200A501FF30AB002B08A6001E30A700003052
:101E1200A8004030A9000030AA00831203131E0854
:101E22000A128A1584250A128A15831603132608B4
:101E3200B8002508B7003808AC003708AB0003101B
:101E4200AC0CAB0C0310AC0CAB0C2B0883120313C1
:101E520095008316031337080339AB00AB0E8312C8
:101E620003131708831603132B06CF392B0683128D
:101E720003139700C42F831203131F0C831603133B
:101E8200AB002B0C0F39013A031D482F492F962F17
:101E9200A501FF30AB002B08A6001E30A7000030C2
:101EA200A8004030A9000030AA00831203131E08C4
:101EB2000A128A1584250A128A1583160313260824
:101EC200B6002508B5003608AC003508AB00031093
:101ED200AC0CAB0C0310AC0CAB0C2B088312031331
:101EE2009B008316031335080139AB00AB0E831236
:101EF20003131D08831603132B06EF392B068312D7
:101F020003139D008316031335080239AB00AB0E91
:101F1200AB0D831203131D08831603132B06DF393F
:101F22002B06831203139D00C42F831203131F0C6D
:101F320083160313AB002B0C0F39023A031DA22F99
:101F4200A32FC42FA501FF30AB002B08A600013040
:101F5200A7000030A8000930A9000030AA008312AF
:101F620003131E080A128A1584250A128A1583167B
:101F72000313250883120313880002308316031308
:101F8200B1000030B20083120C130B1DC92FCA2FEF
:101F9200F52F013083160313B3070318B40A003078
:101FA200B407FF308312031381000B11831603134E
:101FB20032083406031DDF2F31083306031DE22FDA
:101FC200E32FE72F831203138711F52F0A3033060D
:101FD2003404031DED2FEE2FF52F83120313871503
:101FE20083160313B301B401831603132F08FF00F2
:0E1FF2002E088A002D0E8300FE0E7E0E0900C2
:08400000FF3FFF3FFF3FFF3FC0
:04400E00D420FF3F7C
:00000001FF
