:060000000A128A1110280B
:10000800FE00030E83160313AD000A08AE007F0836
:10001800AF000A128A15942E0A128A111328831621
:100028000313B101B201B301B40183010A128A15A5
:10003800B42C831203133D088039C2004208C7005C
:100048003D08C2004207C3004308CD00BC1F2D284D
:100058002E282F284D144D080319332834284328F7
:100068004D0A031D3828392841280030BD000030CA
:10007800BC000030BB000030BA00BC174B28003071
:10008800BD000030BC000030BB000030BA004108A1
:100098008039C2004208C7064108C2004207C300AF
:1000A8004308CC00C01F59285A285B284C144C0818
:1000B80003195F2860286F284C0A031D64286528E7
:1000C8006D280030C1000030C0000030BF00003093
:1000D800BE00C01777280030C1000030C0000030D3
:1000E800BF000030BE004C0803197B287C288128FB
:1000F8004D08031D802881288A280030BD00003063
:10010800BC000030BB000030BA007D2B3A08C200AA
:100118004208F00040080A128A158D240A128A1132
:10012800710883120313D3007008D2005208C2006A
:10013800C301C401C5014508CB004408CA004308EF
:10014800C9004208C8005308C200C301C401C50160
:100158004508D1004408D0004308CF004208CE002B
:100168003B08C2004208F0003F080A128A158D2495
:100178000A128A11710883120313D3007008D2007F
:100188005208C200C301C401C5014208C807430898
:1001980003110318013E0319D228C90744080311A3
:1001A8000318013E0319D928CA0745080311031883
:1001B800013E0319E028CB075308C200C301C4015C
:1001C800C5014208CE07430803110318013E03196D
:1001D800EE28CF07440803110318013E0319F52838
:1001E800D007450803110318013E0319FC28D1075D
:1001F8003C08C2004208F0003E080A128A158D2405
:100208000A128A11710883120313D3007008D200EE
:100218005208C200C301C401C5014208C807430807
:1002280003110318013E03191A29C90744080311C9
:100238000318013E03192129CA07450803110318A9
:10024800013E03192829CB075308C200C301C40182
:10025800C5014208CE07430803110318013E0319DC
:100268003629CF07440803110318013E03193D2915
:10027800D007450803110318013E03194429D10783
:100288000830C2000310C80DC90DCA0DCB0DC20B32
:1002980046293B08C2004208F0003E080A128A15A7
:1002A8008D240A128A11710883120313D30070086F
:1002B800D2005208C2005308C300C401C501420855
:1002C800C807430803110318013E03196C29C9071D
:1002D800440803110318013E03197329CA07450886
:1002E80003110318013E03197A29CB073A08C20003
:1002F8004208F0003F080A128A158D240A128A1152
:10030800710883120313D3007008D2005208C20088
:100318005308C300C401C5014208C80743080311B4
:100328000318013E03199929C90744080311031842
:10033800013E0319A029CA07450803110318013E05
:100348000319A729CB070830C2000310C80DC90D2F
:10035800CA0DCB0DC20BA9293A08C2004208F00009
:100368003E080A128A158D240A128A11710883120E
:100378000313D3007008D2005208C2005308C30008
:10038800C401C5014208C807430803110318013E08
:100398000319CF29C907440803110318013E03199B
:1003A800D629CA07450803110318013E0319DD2998
:1003B800CB073B08C2004208F00040080A128A1521
:1003C8008D240A128A11710883120313D30070084E
:1003D800D2005208C2005308C300C401C501420834
:1003E800CE07430803110318013E0319FC29CF0760
:1003F800440803110318013E0319032AD0074508CE
:1004080003110318013E03190A2AD1073C08C20048
:100418004208F0003F080A128A158D240A128A1130
:10042800710883120313D3007008D2005208C20067
:100438005308C300C401C5014208CE07430803118D
:100448000318013E0319292ACF074408031103188A
:10045800013E0319302AD007450803110318013E4D
:100468000319372AD1073C08C2004208F0004008A7
:100478000A128A158D240A128A117108831203132D
:10048800D3007008D2005208C2005308C300C40148
:10049800C50108300310C20DC30DC40DC50DFF3EC4
:1004A800031D4E2A4208CE07430803110318013ED4
:1004B80003195F2ACF07440803110318013E0319E3
:1004C800662AD007450803110318013E03196D2A4F
:1004D800D1074808C2004908C3004A08C4004B08AD
:1004E800C50018300310C50CC40CC30CC20CFF3E69
:1004F800031D762A4208CE07430803110318013E5C
:100508000319872ACF07440803110318013E03196A
:100518008E2AD007450803110318013E0319952AAE
:10052800D1070830C2000310C80DC90DCA0DCB0D84
:10053800C20B972A4D084C07C200C301C30D4208DD
:10054800823ED20043080318013EFF3ED300C92A69
:100558000130C2000310CE0DCF0DD00DD10DC20B4E
:10056800AE2ACB1FB82AB92ABA2A4E140130C200C3
:100578000310C80DC90DCA0DCB0DC20BBC2AFF3024
:10058800D2070318D30AFF30D307D01FCC2ACD2AAD
:10059800AC2ACC01CB1FD12AD22AEE2AFF3048053B
:1005A800C200FF304905C300FF304A05C4007F3050
:1005B8004B05C50045084404430442040319E52AD1
:1005C800E62AE92ACC01CC0AEE2A4E1CEC2AED2AAE
:1005D800EE2AE62A4C080319F22AF32A242B0130C2
:1005E800CE07003003180130CF0700300318013060
:1005F800D007003003180130D107511C042B052BFC
:10060800242B4E08C2004F08C3005008C4005108EC
:10061800C5000130C600450DC50CC40CC30CC20C86
:10062800C60B0F2B4508D1004408D0004308CF0063
:100638004208CE000130D2070318D30A0030D3078E
:100648005308803AFF0080307F02031D2D2BFF30B6
:100658005202031C302B312B3C2B7F3083120313A7
:10066800D1008030D0000030CF000030CE00712B98
:10067800831203135308803AFF0080307F02031D62
:10068800472B0130520203184A2B4B2B572B0030B3
:1006980083120313D1000030D0000030CF000030A7
:1006A800CE00C701712B831203135208C2004208FF
:1006B800CD00FF30CE05FF30CF057F30D0050030AC
:1006C800D1054D1C682B692B6A2BD0174D08C20029
:1006D8000310420CC3004308D1004708C200420877
:1006E800D1045108BD005008BC004F08BB004E089B
:1006F800BA0008008312031357088039DC005C082D
:10070800E4005708DC005C07DD005D08E600D61F42
:100718008E2B8F2B902B661466080319942B952B20
:10072800A52B660A031D992B9A2BA22B0030D70004
:100738000030D6000030D5000030D400D617D701DD
:10074800AD2B0030D7000030D6000030D500003087
:10075800D4005B088039DC005C08E50065086406A5
:100768000319B72BB82BB92B64175B08DC005C079F
:10077800DD005D08E500DA1FC22BC32BC42B65140E
:1007880065080319C82BC92BD92B650A031DCD2B66
:10079800CE2BD62B0030DB000030DA000030D90039
:1007A8000030D800DA17DB01E12B0030DB00003025
:1007B800DA000030D9000030D80066086502031856
:1007C800E62BE72B2B2C641FEA2BEB2BEF2B80302F
:1007D800DC005C08E4066608DC005C08E7006508E5
:1007E800DC005C08E6006708DC005C08E5005408EB
:1007F800DC005C08E7005808DC005C08D4006708E7
:10080800DC005C08D8005508DC005C08E7005908E3
:10081800DC005C08D5006708DC005C08D9005608D5
:10082800DC005C08E7005A08DC005C08D6006708B2
:10083800DC005C08DA005708DC005C08E7005B08AD
:10084800DC005C08D7006708DC005C08DB00E70117
:100858006508DC00DD015D08DF0066085C02DE007B
:10086800031CDF035F08803AFF0080307F02031D0E
:100878003F2C1A305E02031C422C432C802C83121E
:1008880003135708560455045404031D4C2C4E2CCE
:1008980001304F2C0030DC005C08E7000030D70046
:1008A8000030D6000030D5000030D4006508DC00E8
:1008B8005C08E600882C671C622C632C6C2C67088B
:1008C800DC0003105C0C0138DD005D08E7006E2CCD
:1008D8000310E70C541C712C722C732CE717013091
:1008E800DC00570DD70CD60CD50CD40CDC0B752CB2
:1008F8000130DC005C08E607831203136508660212
:10090800031C872C882C5F2C641B8B2C8C2CD72CDD
:100918006608031D902C912C9A2C0030D7000030CB
:10092800D6000030D5000030D400052E5808D40772
:10093800590803110318013E0319A32CD5075A08B7
:1009480003110318013E0319AA2CD6075B080311EB
:100958000318013E0319B12CD707571CB42CB52C2A
:100968008B2D671CB82CB92CC22C6708DC0003102F
:100978005C0C0138DD005D08E700C42C0310E70CAF
:10098800541CC72CC82CC92CE7170130DC00570DA4
:10099800D70CD60CD50CD40CDC0BCB2C0130DC00DE
:1009A8005C08E6078B2D5708803AFF005B08803A01
:1009B8007F02031DE92C5A085602031DE92C590829
:1009C8005502031DE92C580854020318EC2CED2C91
:1009D800452DFF30DC00FF30DD00FF30DE00FF304A
:1009E800DF005808E0005908E1005A08E2005B08F7
:1009F800E3005408E0025508031C550F042D052D8B
:100A0800E1025608031C560F0A2D0B2DE202570867
:100A1800031C570F102D112DE3026008DC07610835
:100A28000318610F182D192DDD0762080318620FCE
:100A38001E2D1F2DDE0763080318630ADF075F08F2
:100A4800D7005E08D6005D08D5005C08D400803069
:100A5800DC005C08E406E709E70A6708031D352D92
:100A6800362D532D0130D407003003180130D50737
:100A7800003003180130D607003003180130D707BB
:100A8800532D5808D4025908031C590FD5025A0887
:100A9800031C5A0FD6025B08031C5B0FD7025708CA
:100AA800560455045404031D5A2D5B2D872D6708E1
:100AB800031D5F2D602D872D0030D7000030D60034
:100AC8000030D5000030D400052E0130DC000310C2
:100AD800D40DD50DD60DD70DDC0B6B2DE71F752D5D
:100AE800762D772D5414671C7A2D7B2D7E2D0314BB
:100AF800E70D802D0310E70D66080319842D852D59
:100B0800872D0130E602D61F8A2D8B2D692DE50130
:100B1800E71F8F2D902D9E2D67087F390319952D7E
:100B2800962D992DE501E50A9E2D541C9C2D9D2D91
:100B38009E2D962D65080319A22DA32DD72D0130C2
:100B4800D407003003180130D507003003180130EE
:100B5800D607003003180130D707571CB42DB52D20
:100B6800D72D5408DC005508DD005608DE0057086C
:100B7800DF000130E0005F0DDF0CDE0CDD0CDC0C6B
:100B8800E00BBF2D5F08D7005E08D6005D08D500D2
:100B98005C08D400660A0319D22DD32DD72D013055
:100BA800DC005C08E607660A0319DB2DDC2DE12D65
:100BB8006608031DE02DE12DEF2D0030D700003031
:100BC800D6000030D5000030D4006608031DED2D96
:100BD800EE2DEF2DE401661CF22DF32DF52DD61721
:100BE800F92D7F30DC005C08D6056608DC000310B0
:100BF8005C0CDD005D08D700E41F032E042E052ED3
:100C0800D71708008312031327088039A80028087B
:100C1800B1002708A8002807A9002908B800A61FBE
:100C2800162E172E182E3814380803191C2E1D2EB0
:100C38002D2E380A031D212E222E2A2E0030A70021
:100C48000030A6000030A5000030A400A617A701B8
:100C5800352E0030A7000030A6000030A500003077
:100C6800A40023088039A8002808B1062308A80092
:100C78002807A9002908B900A21F432E442E452E93
:100C8800391439080319492E4A2E5A2E390A031DD8
:100C98004E2E4F2E572E0030A3000030A2000030F9
:100CA800A1000030A000A217A301622E0030A3000B
:100CB8000030A2000030A1000030A0002308220468
:100CC80021042004031D692E6A2E832E0030A700FC
:100CD8000030A6000030A5000030A4008030A60433
:100CE8007F30A7043108A8002808A7042708A30014
:100CF8002608A2002508A1002408A000E22F380831
:100D0800031D872E882E912E0030A3000030A200EC
:100D18000030A1000030A000E22F3808A800A90187
:100D28002908AB0039082802AA00031CAB032A08CB
:100D38007F3EB2002B080318013E003EB30027088F
:100D4800B0002608AF002508AE002408AD0000302A
:100D5800A7000030A6000030A5000030A400003035
:100D6800B7000030B6000030B5000030B400B9015B
:100D7800072F39080319C12EC22EE22E0130A80010
:100D88000310AD0DAE0DAF0DB00DA80BC42E013084
:100D9800A8000310A40DA50DA60DA70DA80BCD2E18
:100DA800B71FD72ED82ED92E24140130A80003102F
:100DB800B40DB50DB60DB70DA80BDB2E2308300208
:100DC800031DF02E22082F02031DF02E21082E02EB
:100DD800031DF02E20082D02031CF32EF42E032FE2
:100DE80037172008AD022108031C210FAE02220884
:100DF800031C220FAF022308031C230FB00201308B
:100E0800A8002808B9071A303902031C0C2F0D2F27
:100E1800BD2E30082F042E042D040319142F152F6E
:100E2800342F3414342F0130A8000310A40DA50D5D
:100E3800A60DA70DA80B192FB71F232F242F252F79
:100E480024140130A8000310B40DB50DB60DB70D6C
:100E5800A80B272FFF30B2070318B30AFF30B307D8
:100E6800A61F372F382F172FB901B71F3C2F3D2F3B
:100E7800592FFF303405A800FF303505A900FF3091
:100E88003605AA007F303705AB002B082A04290451
:100E980028040319502F512F542FB901B90A592F7B
:100EA800241C572F582F592F512F390803195D2FFC
:100EB8005E2F8F2F0130A407003003180130A507DB
:100EC800003003180130A607003003180130A707C7
:100ED800271C6F2F702F8F2F2408A8002508A90022
:100EE8002608AA002708AB000130AC002B0DAB0C7C
:100EF800AA0CA90CA80CAC0B7A2F2B08A7002A085F
:100F0800A6002908A5002808A4000130B207031884
:100F1800B30A0030B3073308803AFF0080307F02FD
:100F2800031D982FFF303202031C9B2F9C2FAA2FE2
:100F3800FF3083120313B2000030B3000030A70063
:100F48000030A6000030A5000030A400831203136F
:100F58003308803AFF0080307F02031DB52F01302F
:100F680032020318B82FB92FC62F83120313B20108
:100F7800B3010030A7000030A6000030A500003003
:100F8800A400B101831203133208A8002808B8008E
:100F9800381CCF2FD02FD22FA617D62F7F30A800DE
:100FA8002808A6053808A8000310280CA900290855
:0E0FB800A7003108A8002808A7047A2E080018
:10191A00F800F401F5017008F200F3017208F6000C
:10192A007308F700781C9A2C9B2CA12C7608F407D4
:10193A000318F50A7708F50701300310F60DF70DBD
:10194A00FF3E031DA22C0310F80C7808031DAE2CD1
:10195A00AF2C972C7508F1007408F00008000A12E1
:10196A008A15EC240A128A15831203139F18BE2CB7
:10197A00BF2CB92C1F0C83160313B000300C0F397F
:10198A00003A031DC92CCA2CD12C831203131F0839
:10199A00C33904389F00E22C831203131F0C8316E9
:1019AA000313B000300C0F39013A031DDD2CDE2C75
:1019BA00E22CC330831203139F05E32CE42C0000AE
:1019CA00831203139F14B92C0A128A1110280330A8
:1019DA008316031788008901831603130F088F39AA
:1019EA0030388F000F1403308500831203138501EA
:1019FA00C0309F04831603131F129F12C330831231
:101A0A0003139F05831603139F13831203131F14D3
:101A1A000E2D0F2D0000831603130715871483124A
:101A2A00031397019D011E308316031392003F3062
:101A3A008312031397051708F0390C3897001D080D
:101A4A00F0390C389D00073095001708CF39203837
:101A5A00970007309B001D129D168C1003309204CC
:101A6A0012158C1C392D3A2D362D8C108316031322
:101A7A00071187108B170C17831203130C130B17FC
:101A8A0008000310831203136A0D6B0D83160313E8
:101A9A00A000200883120313ED006D08031D562DC4
:101AAA00572D602D0030EB000030EA000030E900CD
:101ABA000030E800E12D680883160313A0008312A2
:101ACA000313690883160313A100831203136A0818
:101ADA0083160313A200831203136B0883160313DE
:101AEA00A3001F300310A30CA20CA10CA00CFF3EF4
:101AFA00031D772D2008A400240883120313EC0089
:101B0A00EA17FF30E805FF30E905FF30EA05003043
:101B1A00EB059630ED02ED1F932D942DB22D6D0835
:101B2A00803A973E03189A2D9B2D9C2D572D0130F4
:101B3A000310EB0CEA0CE90CE80CFF3E031D9D2D8B
:101B4A00013083160313A000200883120313ED0744
:101B5A00031DB02DB12D9C2DD12D20306D02031CFB
:101B6A00B72DB82DCC2D572D013083160313A000A5
:101B7A00031083120313E80DE90DEA0DEB0D83162A
:101B8A000313A00BBD2D013083120313ED026D0860
:101B9A00031DD02DD12DB92D6C080319D52DD62DA5
:101BAA00E12DE809E909EA09EB09E80A0319E90A52
:101BBA000319EA0A0319EB0A080083120313EE0059
:101BCA00831603132708F0002808F100F201F30135
:101BDA0000300A128A1546270A128A1573088312D8
:101BEA000313DB007208DA007108D9007008D80004
:101BFA008316031327082902F0002808031C280A61
:101C0A002A02F100F201F30100300A128A1546276E
:101C1A000A128A15730883120313A7007208A60012
:101C2A007108A5007008A40083160313250826026C
:101C3A00F000F101031CF103F201F11BF203720837
:101C4A00F30001300A128A1546270A128A15730808
:101C5A0083120313A3007208A2007108A10070087E
:101C6A00A0000A128A1106260A128A158312031381
:101C7A002308C1002208C0002108BF002008BE00B6
:101C8A00831603132508831203136E02F000F10171
:101C9A00031CF103F201F11BF2037208F300013095
:101CAA000A128A1546270A128A1573088312031321
:101CBA00BD007208BC007108BB007008BA000A12A5
:101CCA008A111D200A128A15831203133D08D700B0
:101CDA003C08D6003B08D5003A08D4000A128A11FB
:101CEA007E230A128A15831203135708EB0056083B
:101CFA00EA005508E9005408E8000A128A15462540
:101D0A000A128A1583120313690883160313A6009D
:101D1A0083120313680883160313A50008008312AD
:101D2A0003130C1F992E9A2E3B2F1F0C8316031395
:101D3A00AB002B0C0F39003A031DA42EA52EE02E62
:101D4A00A501FF30AB002B08A6001030A700003019
:101D5A00A8005030A9000030AA00831203131E08FD
:101D6A000A128A15E2250A128A158316031326080F
:101D7A00B4002508B3003408AC003308AB000310E4
:101D8A00AC0CAB0C0310AC0CAB0C2B08831203137A
:101D9A0095008316031333080339AB00AB0E831285
:101DAA0003131708831603132B06CF392B06831246
:101DBA0003139700392F831203131F0C831603137F
:101DCA00AB002B0C0F39013A031DEC2EED2E392FE7
:101DDA00A501FF30AB002B08A6001030A700003089
:101DEA00A8005030A9000030AA00831203131E086D
:101DFA000A128A15E2250A128A158316031326087F
:101E0A00B2002508B1003208AC003108AB0003105B
:101E1A00AC0CAB0C0310AC0CAB0C2B0883120313E9
:101E2A009B008316031331080139AB00AB0E8312F2
:101E3A0003131D08831603132B06EF392B0683128F
:101E4A0003139D008316031331080239AB00AB0E4E
:101E5A00AB0D831203131D08831603132B06DF39F8
:101E6A002B06831203139D0083120C13831603138C
:101E7A002F08FF002E088A002D0E8300FE0E7E0E0C
:101E8A000900F800780803194B2F4C2F602FF31F15
:101E9A004F2F502F602F7009FA007109FB00720949
:101EAA00FC007309FD00FA0A0319FB0A0319FC0A6C
:101EBA000319FD0A682F7308FD007208FC007108F7
:101ECA00FB007008FA007308720471047004031DA1
:101EDA006F2F702F792F0030F3000030F20000309E
:101EEA00F1000030F000FF2F9630F4007408F9007A
:101EFA008B2F0130F4007408F90701300310FD0C30
:101F0A00FC0CFB0CFA0CFF3E031D832FFE307D05F3
:101F1A00031D902F912F7E2FAD2F0130F4007408EE
:101F2A00F9070130FA07003003180130FB070030C7
:101F3A0003180130FC07003003180130FD07013097
:101F4A000310FD0CFC0CFB0CFA0CFF3E031DA52F25
:101F5A00FF307D05031DB22FB32F922FBF2F013003
:101F6A00F9020130F4000310FA0DFB0DFC0DFD0D12
:101F7A00F40BB82FFC1BC22FC32FC92F02307902D2
:101F8A000318C82FC92FB42F7918CC2FCD2FD52FCE
:101F9A00FF30FA05FF30FB057F30FC05FF30FD05F9
:101FAA000310F90C7908F400F501F601F70118306D
:101FBA000310F40DF50DF60DF70DFF3E031DDD2F91
:101FCA007408FA047508FB047608FC047708FD0413
:101FDA0078080319F12FF22FF72FF31FF52FF62F99
:101FEA00F72FFD177D08F3007C08F2007B08F1004B
:061FFA007A08F000080067
:08400000FF3FFF3FFF3FFF3FC0
:04400E00D420FF3F7C
:00000001FF
